:020000040800F2
:100000000000032095030008DD030008DD0300085D
:10001000DD030008DD030008DD0300080000000028
:10002000000000000000000000000000DD030008E8
:10003000DD03000800000000DD030008DD03000808
:10004000DD030008DD030008DD030008DD03000810
:10005000DD030008DD030008DD030008DD03000800
:10006000DD030008DD030008DD030008DD030008F0
:10007000DD030008DD030008DD030008DD030008E0
:10008000DD030008DD030008DD030008DD030008D0
:10009000DD030008DD030008DD030008DD030008C0
:1000A000DD030008DD030008DD030008DD030008B0
:1000B000DD030008DD030008DD030008DD030008A0
:1000C000DD030008DD030008DD030008DD03000890
:1000D000DD030008DD030008DD030008DD03000880
:1000E000DD030008DD030008DD030008DD03000870
:1000F000DD030008DD030008DD030008DD03000860
:10010000DD030008DD030008DD030008DD0300084F
:10011000DD030008DD030008DD030008DD0300083F
:10012000DD030008DD030008DD030008DD0300082F
:10013000DD030008DD030008DD030008DD0300081F
:10014000DD030008DD030008DD030008DD0300080F
:10015000DD030008DD030008DD030008DD030008FF
:10016000DD030008DD030008DD030008DD030008EF
:10017000DD030008DD030008DD03000800000000C7
:10018000DD030008DD030008DD030008DD030008CF
:10019000DD030008DD030008DD030008DD030008BF
:0C01A000DD030008DD030008DD0300089B
:1001AC00104B1A6B42F040021A630F4B1A6822F084
:1001BC00406242F080621A605A6822F400525A601F
:1001CC009A6822F0406242F000629A60DA6822F08B
:1001DC004062DA607047044B1A6982F400525A612B
:1001EC0070470000003802400018024040F2000046
:1001FC00C2F20000704700B5FFF7F8FF006800BDC1
:10020C0000B5FFF7F3FFFFF7F6FF00F10101FFF771
:10021C00EDFF016000BD4148704700BF00010203C3
:10022C000405060708090A0B0C0D0E0F101112130A
:10023C001415161718191A1B1C1D1E1F20212223FA
:10024C002425262728292A2B2C2D2E2F30313233EA
:10025C003435363738393A3B3C3D3E3F40414243DA
:10026C004445464748494A4B4C4D4E4F50515253CA
:10027C005455565758595A5B5C5D5E5F60616263BA
:10028C006465666768696A6B6C6D6E6F70717273AA
:10029C007475767778797A7B7C7D7E7F808182839A
:1002AC008485868788898A8B8C8D8E8F909192938A
:1002BC009495969798999A9B9C9D9E9FA0A1A2A37A
:1002CC00A4A5A6A7A8A9AAABACADAEAFB0B1B2B36A
:1002DC00B4B5B6B7B8B9BABBBCBDBEBFC0C1C2C35A
:1002EC00C4C5C6C7C8C9CACBCCCDCECFD0D1D2D34A
:1002FC00D4D5D6D7D8D9DADBDCDDDEDFE0E1E2E33A
:10030C00E4E5E6E7E8E9EAEBECEDEEEFF0F1F2F329
:10031C00F4F5F6F7F8F9FAFBFCFDFEFF00000020FF
:10032C0080B483B000AF786000BF7B685A1E7A60DF
:10033C00002BFAD100BF0C37BD465DF8047B70472B
:10034C0080B582B000AF0D4B7B600D4B1B687B60A2
:10035C00FFF761FF7860FFF749FF7860FFF74BFF0D
:10036C007860FFF74DFFFFF746FF7860FFF718FF47
:10037C00FFF731FF0348FFF7D3FFF9E7EECDAB8969
:10038C000000002021430500DFF82CD0002103E001
:10039C000A4B5B584350043109480A4B42189A42A5
:1003AC00F6D3094A02E0002342F8043B074B9A4279
:1003BC00F9D3FFF7C5FF704700000320E0030008E6
:1003CC000000002008000020080000200800002089
:0403DC00FEE7000038
:0803E0005555AAAACDAB55004A
:040000050800039557
:00000001FF
